:1000000075FFDE75FFAD75B21475E10075E2007520
:05001000E34002003096
:0A040000C0F9A4B0999282F8809030
:1000300075900075A00075A4FF75A7001196900437
:1000400000E4754314854340754428A844E5407591
:10005000F00A84F54185F042D290C291E54193F5D2
:10006000A01189759000D291C290E54293F5A0113C
:1000700089759000800280D511B1D8FAA844D54086
:10008000CC854340119E02004D7C057DFFDDFEDCEA
:10009000FA2275B0022275B0012275B00422E5B0D3
:1000A00054FE60EEE5B054FD60F0E5B054FB60E650
:1000B00022E4E5805401603AE58054026025E58041
:1000C0005404600DE5805408600DE5805410600D07
:1000D00022754403A84422754414A8442275442878
:1000E000A84422E5432405F5433101E5805402602C
:1000F000F822E5439405F5433101E580540160F8A9
:1001000022E54375F00A84F54185F042D290C29110
:10011000E54193F5A01189759000D291C290E54216
:0901200093F5A0118975900022ED
:00000001FF
